:1009290057656C636F6D6520746F20757365210061
:0C093900205765696768743D004B67003B
:10090B00043D00000000040B000000000437000051
:0D091B00000001085F020900E4023B00003B
:10095D00759850758920758780758DFA758BFAD2CB
:06096D00ACD2AFD28E22D5
:07099D00AF4D1209A4AF4F9A
:0C09A400C2AC8F993099FDC299D2AC22F0
:10000300E4F541F542F543F544F545F546F547F585
:1000130048F549F54AF54BF54CF54DF54EF54FF5D9
:1000230050F551F552F55312094512095D7F8012BF
:1000330009737BFF7A0979291208A51209B01209FD
:10004300B07FD07E071208CB1209B01209B07F012E
:100053001209731207C47BA07A8679017800AF3A3C
:10006300AE39AD38AC37120824AC00AD01AE02AFE7
:1000730003E47B107A27F9F81208248E448F45E4B1
:100083007B107A27F9F8AF3AAE39AD38AC3712089E
:1000930024AC00AD01AE02AF03E47BE87A03F9F8C8
:1000A3001208248E468F47E47BE87A03F9F8AF3AC7
:1000B300AE39AD38AC37120824AC00AD01AE02AF97
:1000C30003E47B64FAF9F81208248E488F49E47B31
:1000D30064FAF9F8AF3AAE39AD38AC37120824AC4C
:1000E30000AD01AE02AF03E47B0AFAF9F81208246B
:1000F3008E4A8F4BAE44AF457C007D0A120621EF3A
:100103002464FFE43EFEE5472FF54DE5463EF54CFE
:10011300AE48AF49120621E54B2FF54FE54A3EF5B0
:100123004ED3E54F9553E54E9552400EE54F95530B
:10013300F543E54E9552F542800DC3E553954FF5D2
:1001430043E552954EF542E54D454C6003020230BE
:10015300C3E54F9405E54E940040030202307F80CF
:100163001209737BFF7A0979391208A57BA07A8675
:1001730079017800AF3AAE39AD38AC37120824AC08
:1001830000AD01AE02AF03E47B107A27F9F8120841
:1001930024EF2430FF120988E47B107A27F9F8AFA3
:1001A3003AAE39AD38AC37120824AC00AD01AE021B
:1001B300AF03E47BE87A03F9F8120824EF2430FF55
:1001C3001209887F2E120988E47BE87A03F9F8AFD5
:1001D3003AAE39AD38AC37120824AC00AD01AE02EB
:1001E300AF03E47B64FAF9F8120824EF2430FF121A
:1001F3000988E47B64FAF9F8AF3AAE39AD38AC3725
:10020300120824AC00AD01AE02AF03E47B0AFAF995
:10021300F8120824EF2430FF1209887BFF7A09794A
:10022300421208A512099DE4F5410203FDE54D655F
:10023300517004E54C65506003020325C3E5439404
:100243000AE54294004003020325E541C3940A40B2
:10025300030203FD7F801209737BFF7A0979391248
:1002630008A57BA07A8679017800AF3AAE39AD381C
:10027300AC37120824AC00AD01AE02AF03E47B102F
:100283007A27F9F8120824EF2430FF120988E47B57
:10029300107A27F9F8AF3AAE39AD38AC37120824E3
:1002A300AC00AD01AE02AF03E47BE87A03F9F812C8
:1002B3000824EF2430FF1209887F2E120988E47B7B
:1002C300E87A03F9F8AF3AAE39AD38AC37120824FF
:1002D300AC00AD01AE02AF03E47B64FAF9F8120897
:1002E30024EF2430FF120988E47B64FAF9F8AF3A6B
:1002F300AE39AD38AC37120824AC00AD01AE02AF55
:1003030003E47B0AFAF9F8120824EF2430FF1209F8
:10031300887BFF7A0979421208A512099D054102DB
:1003230003FDE4F5417F801209737BFF7A09793974
:100333001208A57BA07A8679017800AF3AAE39AD71
:1003430038AC37120824AC00AD01AE02AF03E47B36
:10035300107A27F9F8120824EF2430FF120988E4F1
:100363007B107A27F9F8AF3AAE39AD38AC371208BB
:1003730024AC00AD01AE02AF03E47BE87A03F9F8E5
:10038300120824EF2430FF1209887F2E120988E413
:100393007BE87A03F9F8AF3AAE39AD38AC371208D7
:1003A30024AC00AD01AE02AF03E47B64FAF9F812AA
:1003B3000824EF2430FF120988E47B64FAF9F8AFCC
:1003C3003AAE39AD38AC37120824AC00AD01AE02F9
:1003D300AF03E47B0AFAF9F8120824EF2430FF1282
:1003E30009887BFF7A0979421208A512099D854C79
:1003F30050854D51854E52854F53E47BE87A03F97E
:10040300F8AF3AAE39AD38AC37120824A804A905C1
:10041300AA06AB07AF08E4FCFDFEC3120641501663
:100423007FA07E867D017C00AB3AAA39A938A83724
:10043300C31206414005C295020056D295020056EA
:1007C4001208688F3A8E398D388C37C3E53A950E06
:1007D400F53AE539950DF539E538950CF538E537F1
:1007E400950BF537AD38FC33402CAE09AF0AAB0797
:1007F400AA06E4F9F8AF3AAE39120824EC12054916
:10080400E4FBFA792078411204431205878F3A8E6B
:10081400398D388C3722E4F53AF539F538F5372235
:0C09B0001208688F0E8E0D8D0C8C0B222F
:1008CB00E4FDFCC3ED9FEC9E5015E4FBFA0BBB0063
:0F08DB00010AEB647B4A70F50DBD00010C80E44F
:0108EA0022EB
:1008EB00E4FDFCC3ED9FEC9E5015E4FBFA0BBB0043
:0F08FB00010AEB647B4A70F50DBD00010C80E42F
:01090A0022CA
:10097300A907C2A67F017E001208EBD2A7898012C5
:0509830008EBC2A722F1
:10098800A907D2A67F017E001208EB8980D2A712A0
:0509980008EBC2A722DC
:1008A5008B548A558956AB54AA55A956120608FF8A
:1008B500D39400401012098874012556F556E43585
:0608C50055F55580E1220B
:10094500C2A7C2A57F381209737F0C1209737F06EF
:080955001209737F010209730E
:0309BC0000002216
:10086800D2A11209BCC2A07F007E007D007C0020BE
:10087800A1FDE4FBD2A07801120657C2A030A10D59
:10088800EF2401FFE43EFEE43DFDE43CFC0BBB1815
:0C089800E3D2A0ED6480FD1209BCC2A0F8
:0108A4002231
:10044300EC4D6011E8497017ED33EC3304600DE4B3
:10045300FCFFFEFD22E933E8330470F80205F312D2
:1004630005BE58046009E4CC2481500628500902D3
:1004730005FD2840030205FAC0E0EB4A7044B98049
:1004830006D0E0FB0205E9EF4E701CBD8008EBFFD0
:10049300EAFEE9FD80EBE98DF0A4FEE5F002052C10
:1004A300E9CDF9EAFEEBFFEF89F0A4FCE5F0CE8994
:1004B300F0A42EFFE435F0CD89F0A42DFEE435F051
:1004C3008067EF4E7005BD80D780C3EF8BF0A4AC7F
:1004D300F0EE8BF0A42CFCE435F0F8EF8AF0A42CBA
:1004E300E5F038FCE433CB8DF0A42CFCE5F03BF8CD
:1004F300EE8AF0A42CFCE5F038F8E433CF89F0A4BD
:100503002CFCE5F038CF3400CE89F0A42FFFE5F0C2
:100513003EFEE433C98DF0A42EFEE5F039CD8AF01A
:10052300A42FFFE5F03EFEE43DFD33D0E0FB500792
:100533000BBB000F0205FDEC2CFCEF33FFEE33FE8B
:06054300ED33FD0205D5B9
:1005490075F020800E75F010800575F0087D007E2D
:10055900007F003392D530D503120633EC334010B7
:10056900EF33FFEE33FEED33FDEC33FCD5F0ED2236
:0E057900E5F0247EA2D513CC92E7CDCEFF2272
:10058700EDD2E7CD33EC3392D524814006E4FFFE6C
:10059700FDFC22FCE4CFCECDCC24E0501174FF80CB
:1005A700EDC3CC13CCCD13CDCE13CECF13CF047068
:0705B700F030D5DE0206332F
:1005BE00E9D2E7C933E833F892D5EDD2E7CD33EC83
:0705CE0033FC5002B2D522FC
:1005D500EC30E7100FBF000C0EBE00080DBD000487
:1005E5000BEB6014A2D5EB13FCED92E7FD2274FF33
:1005F500FCFDFEFF22E480F8A2D574FF13FC7D808C
:03060500E480EF9F
:03000000020738BC
:0C073800787FE4F6D8FD75815602077F3B
:10060800BB010689828A83E0225002E722BBFE02F0
:09061800E32289828A83E4932223
:10062100EF8DF0A4A8F0CF8CF0A428CE8DF0A42EED
:02063100FE22A7
:10082400C2D5E830E70FB2D5E4C39BFBE49AFAE4FF
:1008340099F9E498F8EC30E717B2D512085A120681
:10084400A6E4C39BFBE49AFAE499F9E498F88003DC
:100854001206A630D50DE4C39FFFE49EFEE49DFD81
:04086400E49CFC22F2
:0E063300C3E49FFFE49EFEE49DFDE49CFC22D8
:10064100EB9FF5F0EA9E42F0E99D42F0EC6480C830
:0606510064809845F022D0
:10065700E8600FEFC333FFEE33FEED33FDEC33FC01
:03066700D8F122A5
:10074400020003E493A3F8E493A34003F68001F2C8
:1007540008DFF48029E493A3F85407240CC8C333B6
:10076400C4540F4420C8834004F456800146F6DF85
:10077400E4800B010204081020408090090BE47E01
:10078400019360BCA3FF543F30E509541FFEE4937A
:10079400A360010ECF54C025E060A840B8E493A341
:1007A400FAE493A3F8E493A3C8C582C8CAC583CA6C
:1007B400F0A3C8C582C8CAC583CADFE9DEE780BE24
:0109280000CE
:10066A0075F008758200EF2FFFEE33FECD33CDCC47
:10067A0033CCC58233C5829BED9AEC99E5829840CA
:10068A000CF582EE9BFEED9AFDEC99FC0FD5F0D6A7
:10069A00E4CEFBE4CDFAE4CCF9A88222B800C1B9D1
:1006AA000059BA002DEC8BF084CFCECDFCE5F0CB0F
:1006BA00F97818EF2FFFEE33FEED33FDEC33FCEB48
:1006CA0033FB10D703994004EB99FB0FD8E5E4F903
:1006DA00FA227818EF2FFFEE33FEED33FDEC33FCF0
:1006EA00C933C910D7059BE99A4007EC9BFCE99AE4
:1006FA00F90FD8E0E4C9FAE4CCFB2275F010EF2F29
:10070A00FFEE33FEED33FDCC33CCC833C810D70728
:10071A009BEC9AE899400AED9BFDEC9AFCE899F863
:0E072A000FD5F0DAE4CDFBE4CCFAE4C8F922F6
:00000001FF
